{
  "_format": "hh-sol-artifact-1",
  "contractName": "DatsNativeMinter",
  "sourceName": "contracts/DatsNativeMinter.sol",
  "abi": [
    {
      "inputs": [
        {
          "internalType": "uint256",
          "name": "initSupply",
          "type": "uint256"
        }
      ],
      "stateMutability": "nonpayable",
      "type": "constructor"
    },
    {
      "anonymous": false,
      "inputs": [
        {
          "indexed": true,
          "internalType": "address",
          "name": "owner",
          "type": "address"
        },
        {
          "indexed": true,
          "internalType": "address",
          "name": "spender",
          "type": "address"
        },
        {
          "indexed": false,
          "internalType": "uint256",
          "name": "value",
          "type": "uint256"
        }
      ],
      "name": "Approval",
      "type": "event"
    },
    {
      "anonymous": false,
      "inputs": [
        {
          "indexed": true,
          "internalType": "address",
          "name": "dst",
          "type": "address"
        },
        {
          "indexed": false,
          "internalType": "uint256",
          "name": "wad",
          "type": "uint256"
        }
      ],
      "name": "Deposit",
      "type": "event"
    },
    {
      "anonymous": false,
      "inputs": [
        {
          "indexed": true,
          "internalType": "address",
          "name": "src",
          "type": "address"
        },
        {
          "indexed": false,
          "internalType": "uint256",
          "name": "wad",
          "type": "uint256"
        }
      ],
      "name": "Mintdrawal",
      "type": "event"
    },
    {
      "anonymous": false,
      "inputs": [
        {
          "indexed": true,
          "internalType": "address",
          "name": "previousOwner",
          "type": "address"
        },
        {
          "indexed": true,
          "internalType": "address",
          "name": "newOwner",
          "type": "address"
        }
      ],
      "name": "OwnershipTransferred",
      "type": "event"
    },
    {
      "anonymous": false,
      "inputs": [
        {
          "indexed": true,
          "internalType": "address",
          "name": "from",
          "type": "address"
        },
        {
          "indexed": true,
          "internalType": "address",
          "name": "to",
          "type": "address"
        },
        {
          "indexed": false,
          "internalType": "uint256",
          "name": "value",
          "type": "uint256"
        }
      ],
      "name": "Transfer",
      "type": "event"
    },
    {
      "inputs": [
        {
          "internalType": "address",
          "name": "owner",
          "type": "address"
        },
        {
          "internalType": "address",
          "name": "spender",
          "type": "address"
        }
      ],
      "name": "allowance",
      "outputs": [
        {
          "internalType": "uint256",
          "name": "",
          "type": "uint256"
        }
      ],
      "stateMutability": "view",
      "type": "function"
    },
    {
      "inputs": [
        {
          "internalType": "address",
          "name": "spender",
          "type": "address"
        },
        {
          "internalType": "uint256",
          "name": "amount",
          "type": "uint256"
        }
      ],
      "name": "approve",
      "outputs": [
        {
          "internalType": "bool",
          "name": "",
          "type": "bool"
        }
      ],
      "stateMutability": "nonpayable",
      "type": "function"
    },
    {
      "inputs": [
        {
          "internalType": "address",
          "name": "account",
          "type": "address"
        }
      ],
      "name": "balanceOf",
      "outputs": [
        {
          "internalType": "uint256",
          "name": "",
          "type": "uint256"
        }
      ],
      "stateMutability": "view",
      "type": "function"
    },
    {
      "inputs": [
        {
          "internalType": "address",
          "name": "from",
          "type": "address"
        },
        {
          "internalType": "uint256",
          "name": "amount",
          "type": "uint256"
        }
      ],
      "name": "burn",
      "outputs": [],
      "stateMutability": "nonpayable",
      "type": "function"
    },
    {
      "inputs": [],
      "name": "decimals",
      "outputs": [
        {
          "internalType": "uint8",
          "name": "",
          "type": "uint8"
        }
      ],
      "stateMutability": "view",
      "type": "function"
    },
    {
      "inputs": [
        {
          "internalType": "address",
          "name": "spender",
          "type": "address"
        },
        {
          "internalType": "uint256",
          "name": "subtractedValue",
          "type": "uint256"
        }
      ],
      "name": "decreaseAllowance",
      "outputs": [
        {
          "internalType": "bool",
          "name": "",
          "type": "bool"
        }
      ],
      "stateMutability": "nonpayable",
      "type": "function"
    },
    {
      "inputs": [],
      "name": "deposit",
      "outputs": [],
      "stateMutability": "payable",
      "type": "function"
    },
    {
      "inputs": [
        {
          "internalType": "address",
          "name": "spender",
          "type": "address"
        },
        {
          "internalType": "uint256",
          "name": "addedValue",
          "type": "uint256"
        }
      ],
      "name": "increaseAllowance",
      "outputs": [
        {
          "internalType": "bool",
          "name": "",
          "type": "bool"
        }
      ],
      "stateMutability": "nonpayable",
      "type": "function"
    },
    {
      "inputs": [
        {
          "internalType": "address",
          "name": "to",
          "type": "address"
        },
        {
          "internalType": "uint256",
          "name": "amount",
          "type": "uint256"
        }
      ],
      "name": "mint",
      "outputs": [],
      "stateMutability": "nonpayable",
      "type": "function"
    },
    {
      "inputs": [
        {
          "internalType": "uint256",
          "name": "wad",
          "type": "uint256"
        }
      ],
      "name": "mintdraw",
      "outputs": [],
      "stateMutability": "nonpayable",
      "type": "function"
    },
    {
      "inputs": [],
      "name": "name",
      "outputs": [
        {
          "internalType": "string",
          "name": "",
          "type": "string"
        }
      ],
      "stateMutability": "view",
      "type": "function"
    },
    {
      "inputs": [],
      "name": "owner",
      "outputs": [
        {
          "internalType": "address",
          "name": "",
          "type": "address"
        }
      ],
      "stateMutability": "view",
      "type": "function"
    },
    {
      "inputs": [],
      "name": "renounceOwnership",
      "outputs": [],
      "stateMutability": "nonpayable",
      "type": "function"
    },
    {
      "inputs": [],
      "name": "symbol",
      "outputs": [
        {
          "internalType": "string",
          "name": "",
          "type": "string"
        }
      ],
      "stateMutability": "view",
      "type": "function"
    },
    {
      "inputs": [],
      "name": "totalSupply",
      "outputs": [
        {
          "internalType": "uint256",
          "name": "",
          "type": "uint256"
        }
      ],
      "stateMutability": "view",
      "type": "function"
    },
    {
      "inputs": [
        {
          "internalType": "address",
          "name": "to",
          "type": "address"
        },
        {
          "internalType": "uint256",
          "name": "amount",
          "type": "uint256"
        }
      ],
      "name": "transfer",
      "outputs": [
        {
          "internalType": "bool",
          "name": "",
          "type": "bool"
        }
      ],
      "stateMutability": "nonpayable",
      "type": "function"
    },
    {
      "inputs": [
        {
          "internalType": "address",
          "name": "from",
          "type": "address"
        },
        {
          "internalType": "address",
          "name": "to",
          "type": "address"
        },
        {
          "internalType": "uint256",
          "name": "amount",
          "type": "uint256"
        }
      ],
      "name": "transferFrom",
      "outputs": [
        {
          "internalType": "bool",
          "name": "",
          "type": "bool"
        }
      ],
      "stateMutability": "nonpayable",
      "type": "function"
    },
    {
      "inputs": [
        {
          "internalType": "address",
          "name": "newOwner",
          "type": "address"
        }
      ],
      "name": "transferOwnership",
      "outputs": [],
      "stateMutability": "nonpayable",
      "type": "function"
    }
  ],
  "bytecode": "0x6080604052730200000000000000000000000000000000000001600660006101000a81548173ffffffffffffffffffffffffffffffffffffffff021916908373ffffffffffffffffffffffffffffffffffffffff1602179055503480156200006657600080fd5b50604051620026203803806200262083398181016040528101906200008c91906200048c565b6040518060400160405280600a81526020017f4441545320546f6b656e000000000000000000000000000000000000000000008152506040518060400160405280600481526020017f4441545300000000000000000000000000000000000000000000000000000000815250816003908051906020019062000110929190620003c5565b50806004908051906020019062000129929190620003c5565b5050506200014c620001406200017460201b60201c565b6200017c60201b60201c565b6200016d620001606200017460201b60201c565b826200024260201b60201c565b506200067e565b600033905090565b6000600560009054906101000a900473ffffffffffffffffffffffffffffffffffffffff16905081600560006101000a81548173ffffffffffffffffffffffffffffffffffffffff021916908373ffffffffffffffffffffffffffffffffffffffff1602179055508173ffffffffffffffffffffffffffffffffffffffff168173ffffffffffffffffffffffffffffffffffffffff167f8be0079c531659141344cd1fd0a4f28419497f9722a3daafe3b4186f6b6457e060405160405180910390a35050565b600073ffffffffffffffffffffffffffffffffffffffff168273ffffffffffffffffffffffffffffffffffffffff161415620002b5576040517f08c379a0000000000000000000000000000000000000000000000000000000008152600401620002ac90620004f0565b60405180910390fd5b620002c960008383620003bb60201b60201c565b8060026000828254620002dd919062000540565b92505081905550806000808473ffffffffffffffffffffffffffffffffffffffff1673ffffffffffffffffffffffffffffffffffffffff168152602001908152602001600020600082825462000334919062000540565b925050819055508173ffffffffffffffffffffffffffffffffffffffff16600073ffffffffffffffffffffffffffffffffffffffff167fddf252ad1be2c89b69c2b068fc378daa952ba7f163c4a11628f55a4df523b3ef836040516200039b919062000512565b60405180910390a3620003b760008383620003c060201b60201c565b5050565b505050565b505050565b828054620003d390620005a7565b90600052602060002090601f016020900481019282620003f7576000855562000443565b82601f106200041257805160ff191683800117855562000443565b8280016001018555821562000443579182015b828111156200044257825182559160200191906001019062000425565b5b50905062000452919062000456565b5090565b5b808211156200047157600081600090555060010162000457565b5090565b600081519050620004868162000664565b92915050565b6000602082840312156200049f57600080fd5b6000620004af8482850162000475565b91505092915050565b6000620004c7601f836200052f565b9150620004d4826200063b565b602082019050919050565b620004ea816200059d565b82525050565b600060208201905081810360008301526200050b81620004b8565b9050919050565b6000602082019050620005296000830184620004df565b92915050565b600082825260208201905092915050565b60006200054d826200059d565b91506200055a836200059d565b9250827fffffffffffffffffffffffffffffffffffffffffffffffffffffffffffffffff03821115620005925762000591620005dd565b5b828201905092915050565b6000819050919050565b60006002820490506001821680620005c057607f821691505b60208210811415620005d757620005d66200060c565b5b50919050565b7f4e487b7100000000000000000000000000000000000000000000000000000000600052601160045260246000fd5b7f4e487b7100000000000000000000000000000000000000000000000000000000600052602260045260246000fd5b7f45524332303a206d696e7420746f20746865207a65726f206164647265737300600082015250565b6200066f816200059d565b81146200067b57600080fd5b50565b611f92806200068e6000396000f3fe6080604052600436106101095760003560e01c8063715018a611610095578063a457c2d711610064578063a457c2d71461036b578063a9059cbb146103a8578063d0e30db0146103e5578063dd62ed3e146103ef578063f2fde38b1461042c57610109565b8063715018a6146102d55780638da5cb5b146102ec57806395d89b41146103175780639dc29fac1461034257610109565b806323b872dd116100dc57806323b872dd146101ca578063313ce56714610207578063395093511461023257806340c10f191461026f57806370a082311461029857610109565b80630356b6cd1461010e57806306fdde0314610137578063095ea7b31461016257806318160ddd1461019f575b600080fd5b34801561011a57600080fd5b50610135600480360381019061013091906115a4565b610455565b005b34801561014357600080fd5b5061014c610554565b6040516101599190611845565b60405180910390f35b34801561016e57600080fd5b5061018960048036038101906101849190611568565b6105e6565b604051610196919061182a565b60405180910390f35b3480156101ab57600080fd5b506101b4610609565b6040516101c191906119e7565b60405180910390f35b3480156101d657600080fd5b506101f160048036038101906101ec9190611519565b610613565b6040516101fe919061182a565b60405180910390f35b34801561021357600080fd5b5061021c610642565b6040516102299190611a02565b60405180910390f35b34801561023e57600080fd5b5061025960048036038101906102549190611568565b61064b565b604051610266919061182a565b60405180910390f35b34801561027b57600080fd5b5061029660048036038101906102919190611568565b610682565b005b3480156102a457600080fd5b506102bf60048036038101906102ba91906114b4565b61070c565b6040516102cc91906119e7565b60405180910390f35b3480156102e157600080fd5b506102ea610754565b005b3480156102f857600080fd5b506103016107dc565b60405161030e91906117e6565b60405180910390f35b34801561032357600080fd5b5061032c610806565b6040516103399190611845565b60405180910390f35b34801561034e57600080fd5b5061036960048036038101906103649190611568565b610898565b005b34801561037757600080fd5b50610392600480360381019061038d9190611568565b610922565b60405161039f919061182a565b60405180910390f35b3480156103b457600080fd5b506103cf60048036038101906103ca9190611568565b610999565b6040516103dc919061182a565b60405180910390f35b6103ed6109bc565b005b3480156103fb57600080fd5b50610416600480360381019061041191906114dd565b610a24565b60405161042391906119e7565b60405180910390f35b34801561043857600080fd5b50610453600480360381019061044e91906114b4565b610aab565b005b610466610460610ba3565b82610bab565b600660009054906101000a900473ffffffffffffffffffffffffffffffffffffffff1673ffffffffffffffffffffffffffffffffffffffff16634f5aaaba6104ac610ba3565b836040518363ffffffff1660e01b81526004016104ca929190611801565b600060405180830381600087803b1580156104e457600080fd5b505af11580156104f8573d6000803e3d6000fd5b50505050610504610ba3565b73ffffffffffffffffffffffffffffffffffffffff167f25bedde6c8ebd3a89b719a16299dbfe271c7bffa42fe1ac1a52e15ab0cb767e68260405161054991906119e7565b60405180910390a250565b60606003805461056390611b4b565b80601f016020809104026020016040519081016040528092919081815260200182805461058f90611b4b565b80156105dc5780601f106105b1576101008083540402835291602001916105dc565b820191906000526020600020905b8154815290600101906020018083116105bf57829003601f168201915b5050505050905090565b6000806105f1610ba3565b90506105fe818585610d82565b600191505092915050565b6000600254905090565b60008061061e610ba3565b905061062b858285610f4d565b610636858585610fd9565b60019150509392505050565b60006012905090565b600080610656610ba3565b90506106778185856106688589610a24565b6106729190611a39565b610d82565b600191505092915050565b61068a610ba3565b73ffffffffffffffffffffffffffffffffffffffff166106a86107dc565b73ffffffffffffffffffffffffffffffffffffffff16146106fe576040517f08c379a00000000000000000000000000000000000000000000000000000000081526004016106f590611927565b60405180910390fd5b610708828261125a565b5050565b60008060008373ffffffffffffffffffffffffffffffffffffffff1673ffffffffffffffffffffffffffffffffffffffff168152602001908152602001600020549050919050565b61075c610ba3565b73ffffffffffffffffffffffffffffffffffffffff1661077a6107dc565b73ffffffffffffffffffffffffffffffffffffffff16146107d0576040517f08c379a00000000000000000000000000000000000000000000000000000000081526004016107c790611927565b60405180910390fd5b6107da60006113ba565b565b6000600560009054906101000a900473ffffffffffffffffffffffffffffffffffffffff16905090565b60606004805461081590611b4b565b80601f016020809104026020016040519081016040528092919081815260200182805461084190611b4b565b801561088e5780601f106108635761010080835404028352916020019161088e565b820191906000526020600020905b81548152906001019060200180831161087157829003601f168201915b5050505050905090565b6108a0610ba3565b73ffffffffffffffffffffffffffffffffffffffff166108be6107dc565b73ffffffffffffffffffffffffffffffffffffffff1614610914576040517f08c379a000000000000000000000000000000000000000000000000000000000815260040161090b90611927565b60405180910390fd5b61091e8282610bab565b5050565b60008061092d610ba3565b9050600061093b8286610a24565b905083811015610980576040517f08c379a0000000000000000000000000000000000000000000000000000000008152600401610977906119a7565b60405180910390fd5b61098d8286868403610d82565b60019250505092915050565b6000806109a4610ba3565b90506109b1818585610fd9565b600191505092915050565b6109cd6109c7610ba3565b3461125a565b6109d5610ba3565b73ffffffffffffffffffffffffffffffffffffffff167fe1fffcc4923d04b559f4d29a8bfc6cda04eb5b0d3c460751c2402c5c5cc9109c34604051610a1a91906119e7565b60405180910390a2565b6000600160008473ffffffffffffffffffffffffffffffffffffffff1673ffffffffffffffffffffffffffffffffffffffff16815260200190815260200160002060008373ffffffffffffffffffffffffffffffffffffffff1673ffffffffffffffffffffffffffffffffffffffff16815260200190815260200160002054905092915050565b610ab3610ba3565b73ffffffffffffffffffffffffffffffffffffffff16610ad16107dc565b73ffffffffffffffffffffffffffffffffffffffff1614610b27576040517f08c379a0000000000000000000000000000000000000000000000000000000008152600401610b1e90611927565b60405180910390fd5b600073ffffffffffffffffffffffffffffffffffffffff168173ffffffffffffffffffffffffffffffffffffffff161415610b97576040517f08c379a0000000000000000000000000000000000000000000000000000000008152600401610b8e906118a7565b60405180910390fd5b610ba0816113ba565b50565b600033905090565b600073ffffffffffffffffffffffffffffffffffffffff168273ffffffffffffffffffffffffffffffffffffffff161415610c1b576040517f08c379a0000000000000000000000000000000000000000000000000000000008152600401610c1290611947565b60405180910390fd5b610c2782600083611480565b60008060008473ffffffffffffffffffffffffffffffffffffffff1673ffffffffffffffffffffffffffffffffffffffff16815260200190815260200160002054905081811015610cad576040517f08c379a0000000000000000000000000000000000000000000000000000000008152600401610ca490611887565b60405180910390fd5b8181036000808573ffffffffffffffffffffffffffffffffffffffff1673ffffffffffffffffffffffffffffffffffffffff168152602001908152602001600020819055508160026000828254610d049190611a8f565b92505081905550600073ffffffffffffffffffffffffffffffffffffffff168373ffffffffffffffffffffffffffffffffffffffff167fddf252ad1be2c89b69c2b068fc378daa952ba7f163c4a11628f55a4df523b3ef84604051610d6991906119e7565b60405180910390a3610d7d83600084611485565b505050565b600073ffffffffffffffffffffffffffffffffffffffff168373ffffffffffffffffffffffffffffffffffffffff161415610df2576040517f08c379a0000000000000000000000000000000000000000000000000000000008152600401610de990611987565b60405180910390fd5b600073ffffffffffffffffffffffffffffffffffffffff168273ffffffffffffffffffffffffffffffffffffffff161415610e62576040517f08c379a0000000000000000000000000000000000000000000000000000000008152600401610e59906118c7565b60405180910390fd5b80600160008573ffffffffffffffffffffffffffffffffffffffff1673ffffffffffffffffffffffffffffffffffffffff16815260200190815260200160002060008473ffffffffffffffffffffffffffffffffffffffff1673ffffffffffffffffffffffffffffffffffffffff168152602001908152602001600020819055508173ffffffffffffffffffffffffffffffffffffffff168373ffffffffffffffffffffffffffffffffffffffff167f8c5be1e5ebec7d5bd14f71427d1e84f3dd0314c0f7b2291e5b200ac8c7c3b92583604051610f4091906119e7565b60405180910390a3505050565b6000610f598484610a24565b90507fffffffffffffffffffffffffffffffffffffffffffffffffffffffffffffffff8114610fd35781811015610fc5576040517f08c379a0000000000000000000000000000000000000000000000000000000008152600401610fbc906118e7565b60405180910390fd5b610fd28484848403610d82565b5b50505050565b600073ffffffffffffffffffffffffffffffffffffffff168373ffffffffffffffffffffffffffffffffffffffff161415611049576040517f08c379a000000000000000000000000000000000000000000000000000000000815260040161104090611967565b60405180910390fd5b600073ffffffffffffffffffffffffffffffffffffffff168273ffffffffffffffffffffffffffffffffffffffff1614156110b9576040517f08c379a00000000000000000000000000000000000000000000000000000000081526004016110b090611867565b60405180910390fd5b6110c4838383611480565b60008060008573ffffffffffffffffffffffffffffffffffffffff1673ffffffffffffffffffffffffffffffffffffffff1681526020019081526020016000205490508181101561114a576040517f08c379a000000000000000000000000000000000000000000000000000000000815260040161114190611907565b60405180910390fd5b8181036000808673ffffffffffffffffffffffffffffffffffffffff1673ffffffffffffffffffffffffffffffffffffffff16815260200190815260200160002081905550816000808573ffffffffffffffffffffffffffffffffffffffff1673ffffffffffffffffffffffffffffffffffffffff16815260200190815260200160002060008282546111dd9190611a39565b925050819055508273ffffffffffffffffffffffffffffffffffffffff168473ffffffffffffffffffffffffffffffffffffffff167fddf252ad1be2c89b69c2b068fc378daa952ba7f163c4a11628f55a4df523b3ef8460405161124191906119e7565b60405180910390a3611254848484611485565b50505050565b600073ffffffffffffffffffffffffffffffffffffffff168273ffffffffffffffffffffffffffffffffffffffff1614156112ca576040517f08c379a00000000000000000000000000000000000000000000000000000000081526004016112c1906119c7565b60405180910390fd5b6112d660008383611480565b80600260008282546112e89190611a39565b92505081905550806000808473ffffffffffffffffffffffffffffffffffffffff1673ffffffffffffffffffffffffffffffffffffffff168152602001908152602001600020600082825461133d9190611a39565b925050819055508173ffffffffffffffffffffffffffffffffffffffff16600073ffffffffffffffffffffffffffffffffffffffff167fddf252ad1be2c89b69c2b068fc378daa952ba7f163c4a11628f55a4df523b3ef836040516113a291906119e7565b60405180910390a36113b660008383611485565b5050565b6000600560009054906101000a900473ffffffffffffffffffffffffffffffffffffffff16905081600560006101000a81548173ffffffffffffffffffffffffffffffffffffffff021916908373ffffffffffffffffffffffffffffffffffffffff1602179055508173ffffffffffffffffffffffffffffffffffffffff168173ffffffffffffffffffffffffffffffffffffffff167f8be0079c531659141344cd1fd0a4f28419497f9722a3daafe3b4186f6b6457e060405160405180910390a35050565b505050565b505050565b60008135905061149981611f2e565b92915050565b6000813590506114ae81611f45565b92915050565b6000602082840312156114c657600080fd5b60006114d48482850161148a565b91505092915050565b600080604083850312156114f057600080fd5b60006114fe8582860161148a565b925050602061150f8582860161148a565b9150509250929050565b60008060006060848603121561152e57600080fd5b600061153c8682870161148a565b935050602061154d8682870161148a565b925050604061155e8682870161149f565b9150509250925092565b6000806040838503121561157b57600080fd5b60006115898582860161148a565b925050602061159a8582860161149f565b9150509250929050565b6000602082840312156115b657600080fd5b60006115c48482850161149f565b91505092915050565b6115d681611ac3565b82525050565b6115e581611ad5565b82525050565b60006115f682611a1d565b6116008185611a28565b9350611610818560208601611b18565b61161981611bdb565b840191505092915050565b6000611631602383611a28565b915061163c82611bec565b604082019050919050565b6000611654602283611a28565b915061165f82611c3b565b604082019050919050565b6000611677602683611a28565b915061168282611c8a565b604082019050919050565b600061169a602283611a28565b91506116a582611cd9565b604082019050919050565b60006116bd601d83611a28565b91506116c882611d28565b602082019050919050565b60006116e0602683611a28565b91506116eb82611d51565b604082019050919050565b6000611703602083611a28565b915061170e82611da0565b602082019050919050565b6000611726602183611a28565b915061173182611dc9565b604082019050919050565b6000611749602583611a28565b915061175482611e18565b604082019050919050565b600061176c602483611a28565b915061177782611e67565b604082019050919050565b600061178f602583611a28565b915061179a82611eb6565b604082019050919050565b60006117b2601f83611a28565b91506117bd82611f05565b602082019050919050565b6117d181611b01565b82525050565b6117e081611b0b565b82525050565b60006020820190506117fb60008301846115cd565b92915050565b600060408201905061181660008301856115cd565b61182360208301846117c8565b9392505050565b600060208201905061183f60008301846115dc565b92915050565b6000602082019050818103600083015261185f81846115eb565b905092915050565b6000602082019050818103600083015261188081611624565b9050919050565b600060208201905081810360008301526118a081611647565b9050919050565b600060208201905081810360008301526118c08161166a565b9050919050565b600060208201905081810360008301526118e08161168d565b9050919050565b60006020820190508181036000830152611900816116b0565b9050919050565b60006020820190508181036000830152611920816116d3565b9050919050565b60006020820190508181036000830152611940816116f6565b9050919050565b6000602082019050818103600083015261196081611719565b9050919050565b600060208201905081810360008301526119808161173c565b9050919050565b600060208201905081810360008301526119a08161175f565b9050919050565b600060208201905081810360008301526119c081611782565b9050919050565b600060208201905081810360008301526119e0816117a5565b9050919050565b60006020820190506119fc60008301846117c8565b92915050565b6000602082019050611a1760008301846117d7565b92915050565b600081519050919050565b600082825260208201905092915050565b6000611a4482611b01565b9150611a4f83611b01565b9250827fffffffffffffffffffffffffffffffffffffffffffffffffffffffffffffffff03821115611a8457611a83611b7d565b5b828201905092915050565b6000611a9a82611b01565b9150611aa583611b01565b925082821015611ab857611ab7611b7d565b5b828203905092915050565b6000611ace82611ae1565b9050919050565b60008115159050919050565b600073ffffffffffffffffffffffffffffffffffffffff82169050919050565b6000819050919050565b600060ff82169050919050565b60005b83811015611b36578082015181840152602081019050611b1b565b83811115611b45576000848401525b50505050565b60006002820490506001821680611b6357607f821691505b60208210811415611b7757611b76611bac565b5b50919050565b7f4e487b7100000000000000000000000000000000000000000000000000000000600052601160045260246000fd5b7f4e487b7100000000000000000000000000000000000000000000000000000000600052602260045260246000fd5b6000601f19601f8301169050919050565b7f45524332303a207472616e7366657220746f20746865207a65726f206164647260008201527f6573730000000000000000000000000000000000000000000000000000000000602082015250565b7f45524332303a206275726e20616d6f756e7420657863656564732062616c616e60008201527f6365000000000000000000000000000000000000000000000000000000000000602082015250565b7f4f776e61626c653a206e6577206f776e657220697320746865207a65726f206160008201527f6464726573730000000000000000000000000000000000000000000000000000602082015250565b7f45524332303a20617070726f766520746f20746865207a65726f20616464726560008201527f7373000000000000000000000000000000000000000000000000000000000000602082015250565b7f45524332303a20696e73756666696369656e7420616c6c6f77616e6365000000600082015250565b7f45524332303a207472616e7366657220616d6f756e742065786365656473206260008201527f616c616e63650000000000000000000000000000000000000000000000000000602082015250565b7f4f776e61626c653a2063616c6c6572206973206e6f7420746865206f776e6572600082015250565b7f45524332303a206275726e2066726f6d20746865207a65726f2061646472657360008201527f7300000000000000000000000000000000000000000000000000000000000000602082015250565b7f45524332303a207472616e736665722066726f6d20746865207a65726f20616460008201527f6472657373000000000000000000000000000000000000000000000000000000602082015250565b7f45524332303a20617070726f76652066726f6d20746865207a65726f2061646460008201527f7265737300000000000000000000000000000000000000000000000000000000602082015250565b7f45524332303a2064656372656173656420616c6c6f77616e63652062656c6f7760008201527f207a65726f000000000000000000000000000000000000000000000000000000602082015250565b7f45524332303a206d696e7420746f20746865207a65726f206164647265737300600082015250565b611f3781611ac3565b8114611f4257600080fd5b50565b611f4e81611b01565b8114611f5957600080fd5b5056fea2646970667358221220688278e2428a0c9c804d426d3c3a085ef8110c1f22deb086856a6a2aae65b29364736f6c63430008020033",
  "linkReferences": {},
  "deployedLinkReferences": {}
}