{
  "_format": "hh-sol-artifact-1",
  "contractName": "DatsContract",
  "sourceName": "contracts/DatsContract.sol",
  "abi": [
    {
      "inputs": [],
      "stateMutability": "nonpayable",
      "type": "constructor"
    },
    {
      "inputs": [
        {
          "internalType": "uint256",
          "name": "",
          "type": "uint256"
        }
      ],
      "name": "blockchainArray",
      "outputs": [
        {
          "internalType": "uint256",
          "name": "id",
          "type": "uint256"
        },
        {
          "internalType": "address",
          "name": "user",
          "type": "address"
        },
        {
          "internalType": "bool",
          "name": "approveAttackPrevention",
          "type": "bool"
        }
      ],
      "stateMutability": "view",
      "type": "function"
    },
    {
      "inputs": [
        {
          "internalType": "address",
          "name": "",
          "type": "address"
        }
      ],
      "name": "blockchains",
      "outputs": [
        {
          "internalType": "uint256",
          "name": "id",
          "type": "uint256"
        },
        {
          "internalType": "address",
          "name": "user",
          "type": "address"
        },
        {
          "internalType": "bool",
          "name": "approveAttackPrevention",
          "type": "bool"
        }
      ],
      "stateMutability": "view",
      "type": "function"
    },
    {
      "inputs": [
        {
          "internalType": "uint256",
          "name": "",
          "type": "uint256"
        }
      ],
      "name": "cyberArray",
      "outputs": [
        {
          "internalType": "uint256",
          "name": "id",
          "type": "uint256"
        },
        {
          "internalType": "address",
          "name": "user",
          "type": "address"
        },
        {
          "internalType": "bool",
          "name": "isApprove",
          "type": "bool"
        },
        {
          "internalType": "bool",
          "name": "webSecurity",
          "type": "bool"
        },
        {
          "internalType": "bool",
          "name": "serverSecurity",
          "type": "bool"
        },
        {
          "internalType": "bool",
          "name": "ransomwareResearch",
          "type": "bool"
        },
        {
          "internalType": "bool",
          "name": "malwareResearch",
          "type": "bool"
        }
      ],
      "stateMutability": "view",
      "type": "function"
    },
    {
      "inputs": [
        {
          "internalType": "address",
          "name": "",
          "type": "address"
        }
      ],
      "name": "cybers",
      "outputs": [
        {
          "internalType": "uint256",
          "name": "id",
          "type": "uint256"
        },
        {
          "internalType": "address",
          "name": "user",
          "type": "address"
        },
        {
          "internalType": "bool",
          "name": "isApprove",
          "type": "bool"
        },
        {
          "internalType": "bool",
          "name": "webSecurity",
          "type": "bool"
        },
        {
          "internalType": "bool",
          "name": "serverSecurity",
          "type": "bool"
        },
        {
          "internalType": "bool",
          "name": "ransomwareResearch",
          "type": "bool"
        },
        {
          "internalType": "bool",
          "name": "malwareResearch",
          "type": "bool"
        }
      ],
      "stateMutability": "view",
      "type": "function"
    },
    {
      "inputs": [
        {
          "internalType": "uint256",
          "name": "",
          "type": "uint256"
        }
      ],
      "name": "ddosArray",
      "outputs": [
        {
          "internalType": "uint256",
          "name": "id",
          "type": "uint256"
        },
        {
          "internalType": "address",
          "name": "user",
          "type": "address"
        },
        {
          "internalType": "bool",
          "name": "isApprove",
          "type": "bool"
        },
        {
          "internalType": "uint8",
          "name": "trafficScale",
          "type": "uint8"
        }
      ],
      "stateMutability": "view",
      "type": "function"
    },
    {
      "inputs": [
        {
          "internalType": "address",
          "name": "",
          "type": "address"
        }
      ],
      "name": "ddoses",
      "outputs": [
        {
          "internalType": "uint256",
          "name": "id",
          "type": "uint256"
        },
        {
          "internalType": "address",
          "name": "user",
          "type": "address"
        },
        {
          "internalType": "bool",
          "name": "isApprove",
          "type": "bool"
        },
        {
          "internalType": "uint8",
          "name": "trafficScale",
          "type": "uint8"
        }
      ],
      "stateMutability": "view",
      "type": "function"
    },
    {
      "inputs": [],
      "name": "getAllUserData",
      "outputs": [
        {
          "components": [
            {
              "components": [
                {
                  "internalType": "uint256",
                  "name": "id",
                  "type": "uint256"
                },
                {
                  "internalType": "address",
                  "name": "user",
                  "type": "address"
                },
                {
                  "internalType": "bool",
                  "name": "isApprove",
                  "type": "bool"
                },
                {
                  "internalType": "uint8",
                  "name": "trafficScale",
                  "type": "uint8"
                }
              ],
              "internalType": "struct DatsContract.DDos[]",
              "name": "dDoses",
              "type": "tuple[]"
            },
            {
              "components": [
                {
                  "internalType": "uint256",
                  "name": "id",
                  "type": "uint256"
                },
                {
                  "internalType": "address",
                  "name": "user",
                  "type": "address"
                },
                {
                  "internalType": "bool",
                  "name": "isApprove",
                  "type": "bool"
                },
                {
                  "internalType": "uint8",
                  "name": "cpuValue",
                  "type": "uint8"
                }
              ],
              "internalType": "struct DatsContract.SuperComputer[]",
              "name": "superComputers",
              "type": "tuple[]"
            },
            {
              "components": [
                {
                  "internalType": "uint256",
                  "name": "id",
                  "type": "uint256"
                },
                {
                  "internalType": "address",
                  "name": "user",
                  "type": "address"
                },
                {
                  "internalType": "bool",
                  "name": "isApprove",
                  "type": "bool"
                },
                {
                  "internalType": "bool",
                  "name": "webSecurity",
                  "type": "bool"
                },
                {
                  "internalType": "bool",
                  "name": "serverSecurity",
                  "type": "bool"
                },
                {
                  "internalType": "bool",
                  "name": "ransomwareResearch",
                  "type": "bool"
                },
                {
                  "internalType": "bool",
                  "name": "malwareResearch",
                  "type": "bool"
                }
              ],
              "internalType": "struct DatsContract.CyberSecurity[]",
              "name": "cyberSecurities",
              "type": "tuple[]"
            },
            {
              "components": [
                {
                  "internalType": "uint256",
                  "name": "id",
                  "type": "uint256"
                },
                {
                  "internalType": "address",
                  "name": "user",
                  "type": "address"
                },
                {
                  "internalType": "bool",
                  "name": "isApprove",
                  "type": "bool"
                },
                {
                  "internalType": "bool",
                  "name": "webPenetration",
                  "type": "bool"
                },
                {
                  "internalType": "bool",
                  "name": "serverPenetration",
                  "type": "bool"
                },
                {
                  "internalType": "bool",
                  "name": "scadaPenetration",
                  "type": "bool"
                },
                {
                  "internalType": "bool",
                  "name": "blockchainPenetration",
                  "type": "bool"
                },
                {
                  "internalType": "bool",
                  "name": "contractPenetration",
                  "type": "bool"
                }
              ],
              "internalType": "struct DatsContract.Vulnerability[]",
              "name": "vulnerabilities",
              "type": "tuple[]"
            },
            {
              "components": [
                {
                  "internalType": "uint256",
                  "name": "id",
                  "type": "uint256"
                },
                {
                  "internalType": "address",
                  "name": "user",
                  "type": "address"
                },
                {
                  "internalType": "bool",
                  "name": "approveAttackPrevention",
                  "type": "bool"
                }
              ],
              "internalType": "struct DatsContract.Blockchain[]",
              "name": "blockchains",
              "type": "tuple[]"
            }
          ],
          "internalType": "struct DatsContract.UserData",
          "name": "",
          "type": "tuple"
        }
      ],
      "stateMutability": "view",
      "type": "function"
    },
    {
      "inputs": [],
      "name": "getBlockchain",
      "outputs": [
        {
          "components": [
            {
              "internalType": "uint256",
              "name": "id",
              "type": "uint256"
            },
            {
              "internalType": "address",
              "name": "user",
              "type": "address"
            },
            {
              "internalType": "bool",
              "name": "approveAttackPrevention",
              "type": "bool"
            }
          ],
          "internalType": "struct DatsContract.Blockchain",
          "name": "",
          "type": "tuple"
        }
      ],
      "stateMutability": "view",
      "type": "function"
    },
    {
      "inputs": [],
      "name": "getBlockchainCount",
      "outputs": [
        {
          "internalType": "uint256",
          "name": "",
          "type": "uint256"
        }
      ],
      "stateMutability": "view",
      "type": "function"
    },
    {
      "inputs": [],
      "name": "getCyberSecurity",
      "outputs": [
        {
          "components": [
            {
              "internalType": "uint256",
              "name": "id",
              "type": "uint256"
            },
            {
              "internalType": "address",
              "name": "user",
              "type": "address"
            },
            {
              "internalType": "bool",
              "name": "isApprove",
              "type": "bool"
            },
            {
              "internalType": "bool",
              "name": "webSecurity",
              "type": "bool"
            },
            {
              "internalType": "bool",
              "name": "serverSecurity",
              "type": "bool"
            },
            {
              "internalType": "bool",
              "name": "ransomwareResearch",
              "type": "bool"
            },
            {
              "internalType": "bool",
              "name": "malwareResearch",
              "type": "bool"
            }
          ],
          "internalType": "struct DatsContract.CyberSecurity",
          "name": "",
          "type": "tuple"
        }
      ],
      "stateMutability": "view",
      "type": "function"
    },
    {
      "inputs": [],
      "name": "getCyberSecurityCount",
      "outputs": [
        {
          "internalType": "uint256",
          "name": "",
          "type": "uint256"
        }
      ],
      "stateMutability": "view",
      "type": "function"
    },
    {
      "inputs": [],
      "name": "getDDos",
      "outputs": [
        {
          "components": [
            {
              "internalType": "uint256",
              "name": "id",
              "type": "uint256"
            },
            {
              "internalType": "address",
              "name": "user",
              "type": "address"
            },
            {
              "internalType": "bool",
              "name": "isApprove",
              "type": "bool"
            },
            {
              "internalType": "uint8",
              "name": "trafficScale",
              "type": "uint8"
            }
          ],
          "internalType": "struct DatsContract.DDos",
          "name": "",
          "type": "tuple"
        }
      ],
      "stateMutability": "view",
      "type": "function"
    },
    {
      "inputs": [
        {
          "internalType": "address",
          "name": "_user",
          "type": "address"
        }
      ],
      "name": "getDDosByUser",
      "outputs": [
        {
          "components": [
            {
              "internalType": "uint256",
              "name": "id",
              "type": "uint256"
            },
            {
              "internalType": "address",
              "name": "user",
              "type": "address"
            },
            {
              "internalType": "bool",
              "name": "isApprove",
              "type": "bool"
            },
            {
              "internalType": "uint8",
              "name": "trafficScale",
              "type": "uint8"
            }
          ],
          "internalType": "struct DatsContract.DDos",
          "name": "",
          "type": "tuple"
        }
      ],
      "stateMutability": "view",
      "type": "function"
    },
    {
      "inputs": [],
      "name": "getDDosCount",
      "outputs": [
        {
          "internalType": "uint256",
          "name": "",
          "type": "uint256"
        }
      ],
      "stateMutability": "view",
      "type": "function"
    },
    {
      "inputs": [],
      "name": "getSuperComputer",
      "outputs": [
        {
          "components": [
            {
              "internalType": "uint256",
              "name": "id",
              "type": "uint256"
            },
            {
              "internalType": "address",
              "name": "user",
              "type": "address"
            },
            {
              "internalType": "bool",
              "name": "isApprove",
              "type": "bool"
            },
            {
              "internalType": "uint8",
              "name": "cpuValue",
              "type": "uint8"
            }
          ],
          "internalType": "struct DatsContract.SuperComputer",
          "name": "",
          "type": "tuple"
        }
      ],
      "stateMutability": "view",
      "type": "function"
    },
    {
      "inputs": [
        {
          "internalType": "address",
          "name": "_user",
          "type": "address"
        }
      ],
      "name": "getSuperComputerByUser",
      "outputs": [
        {
          "components": [
            {
              "internalType": "uint256",
              "name": "id",
              "type": "uint256"
            },
            {
              "internalType": "address",
              "name": "user",
              "type": "address"
            },
            {
              "internalType": "bool",
              "name": "isApprove",
              "type": "bool"
            },
            {
              "internalType": "uint8",
              "name": "cpuValue",
              "type": "uint8"
            }
          ],
          "internalType": "struct DatsContract.SuperComputer",
          "name": "",
          "type": "tuple"
        }
      ],
      "stateMutability": "view",
      "type": "function"
    },
    {
      "inputs": [],
      "name": "getSuperComputerCount",
      "outputs": [
        {
          "internalType": "uint256",
          "name": "",
          "type": "uint256"
        }
      ],
      "stateMutability": "view",
      "type": "function"
    },
    {
      "inputs": [],
      "name": "getVulnerability",
      "outputs": [
        {
          "components": [
            {
              "internalType": "uint256",
              "name": "id",
              "type": "uint256"
            },
            {
              "internalType": "address",
              "name": "user",
              "type": "address"
            },
            {
              "internalType": "bool",
              "name": "isApprove",
              "type": "bool"
            },
            {
              "internalType": "bool",
              "name": "webPenetration",
              "type": "bool"
            },
            {
              "internalType": "bool",
              "name": "serverPenetration",
              "type": "bool"
            },
            {
              "internalType": "bool",
              "name": "scadaPenetration",
              "type": "bool"
            },
            {
              "internalType": "bool",
              "name": "blockchainPenetration",
              "type": "bool"
            },
            {
              "internalType": "bool",
              "name": "contractPenetration",
              "type": "bool"
            }
          ],
          "internalType": "struct DatsContract.Vulnerability",
          "name": "",
          "type": "tuple"
        }
      ],
      "stateMutability": "view",
      "type": "function"
    },
    {
      "inputs": [],
      "name": "getVulnerabilityCount",
      "outputs": [
        {
          "internalType": "uint256",
          "name": "",
          "type": "uint256"
        }
      ],
      "stateMutability": "view",
      "type": "function"
    },
    {
      "inputs": [],
      "name": "owner",
      "outputs": [
        {
          "internalType": "address",
          "name": "",
          "type": "address"
        }
      ],
      "stateMutability": "view",
      "type": "function"
    },
    {
      "inputs": [
        {
          "internalType": "bool",
          "name": "_approveAttackPrevention",
          "type": "bool"
        }
      ],
      "name": "saveBlockchain",
      "outputs": [],
      "stateMutability": "nonpayable",
      "type": "function"
    },
    {
      "inputs": [
        {
          "internalType": "bool",
          "name": "_isApprove",
          "type": "bool"
        },
        {
          "internalType": "bool",
          "name": "_webSecurity",
          "type": "bool"
        },
        {
          "internalType": "bool",
          "name": "_serverSecurity",
          "type": "bool"
        },
        {
          "internalType": "bool",
          "name": "_ransomwareResearch",
          "type": "bool"
        },
        {
          "internalType": "bool",
          "name": "_malwareResearch",
          "type": "bool"
        }
      ],
      "name": "saveCyberSecurity",
      "outputs": [],
      "stateMutability": "nonpayable",
      "type": "function"
    },
    {
      "inputs": [
        {
          "internalType": "bool",
          "name": "_isApprove",
          "type": "bool"
        },
        {
          "internalType": "uint8",
          "name": "_trafficScale",
          "type": "uint8"
        }
      ],
      "name": "saveDDos",
      "outputs": [],
      "stateMutability": "nonpayable",
      "type": "function"
    },
    {
      "inputs": [
        {
          "internalType": "bool",
          "name": "_isApprove",
          "type": "bool"
        },
        {
          "internalType": "uint8",
          "name": "_cpuValue",
          "type": "uint8"
        }
      ],
      "name": "saveSuperComputer",
      "outputs": [],
      "stateMutability": "nonpayable",
      "type": "function"
    },
    {
      "inputs": [
        {
          "internalType": "bool",
          "name": "_isApprove",
          "type": "bool"
        },
        {
          "internalType": "bool",
          "name": "_webPenetration",
          "type": "bool"
        },
        {
          "internalType": "bool",
          "name": "_serverPenetration",
          "type": "bool"
        },
        {
          "internalType": "bool",
          "name": "_scadaPenetration",
          "type": "bool"
        },
        {
          "internalType": "bool",
          "name": "_blockchainPenetration",
          "type": "bool"
        },
        {
          "internalType": "bool",
          "name": "_contractPenetration",
          "type": "bool"
        }
      ],
      "name": "saveVulnerability",
      "outputs": [],
      "stateMutability": "nonpayable",
      "type": "function"
    },
    {
      "inputs": [
        {
          "internalType": "uint256",
          "name": "",
          "type": "uint256"
        }
      ],
      "name": "superArray",
      "outputs": [
        {
          "internalType": "uint256",
          "name": "id",
          "type": "uint256"
        },
        {
          "internalType": "address",
          "name": "user",
          "type": "address"
        },
        {
          "internalType": "bool",
          "name": "isApprove",
          "type": "bool"
        },
        {
          "internalType": "uint8",
          "name": "cpuValue",
          "type": "uint8"
        }
      ],
      "stateMutability": "view",
      "type": "function"
    },
    {
      "inputs": [
        {
          "internalType": "address",
          "name": "",
          "type": "address"
        }
      ],
      "name": "supers",
      "outputs": [
        {
          "internalType": "uint256",
          "name": "id",
          "type": "uint256"
        },
        {
          "internalType": "address",
          "name": "user",
          "type": "address"
        },
        {
          "internalType": "bool",
          "name": "isApprove",
          "type": "bool"
        },
        {
          "internalType": "uint8",
          "name": "cpuValue",
          "type": "uint8"
        }
      ],
      "stateMutability": "view",
      "type": "function"
    },
    {
      "inputs": [
        {
          "internalType": "address",
          "name": "",
          "type": "address"
        }
      ],
      "name": "vulnerabilities",
      "outputs": [
        {
          "internalType": "uint256",
          "name": "id",
          "type": "uint256"
        },
        {
          "internalType": "address",
          "name": "user",
          "type": "address"
        },
        {
          "internalType": "bool",
          "name": "isApprove",
          "type": "bool"
        },
        {
          "internalType": "bool",
          "name": "webPenetration",
          "type": "bool"
        },
        {
          "internalType": "bool",
          "name": "serverPenetration",
          "type": "bool"
        },
        {
          "internalType": "bool",
          "name": "scadaPenetration",
          "type": "bool"
        },
        {
          "internalType": "bool",
          "name": "blockchainPenetration",
          "type": "bool"
        },
        {
          "internalType": "bool",
          "name": "contractPenetration",
          "type": "bool"
        }
      ],
      "stateMutability": "view",
      "type": "function"
    },
    {
      "inputs": [
        {
          "internalType": "uint256",
          "name": "",
          "type": "uint256"
        }
      ],
      "name": "vulnerabilityArray",
      "outputs": [
        {
          "internalType": "uint256",
          "name": "id",
          "type": "uint256"
        },
        {
          "internalType": "address",
          "name": "user",
          "type": "address"
        },
        {
          "internalType": "bool",
          "name": "isApprove",
          "type": "bool"
        },
        {
          "internalType": "bool",
          "name": "webPenetration",
          "type": "bool"
        },
        {
          "internalType": "bool",
          "name": "serverPenetration",
          "type": "bool"
        },
        {
          "internalType": "bool",
          "name": "scadaPenetration",
          "type": "bool"
        },
        {
          "internalType": "bool",
          "name": "blockchainPenetration",
          "type": "bool"
        },
        {
          "internalType": "bool",
          "name": "contractPenetration",
          "type": "bool"
        }
      ],
      "stateMutability": "view",
      "type": "function"
    }
  ],
  "bytecode": "0x608060405234801561001057600080fd5b50336000806101000a81548173ffffffffffffffffffffffffffffffffffffffff021916908373ffffffffffffffffffffffffffffffffffffffff160217905550613687806100606000396000f3fe608060405234801561001057600080fd5b50600436106101cf5760003560e01c8063886d184011610104578063bce92820116100a2578063db9132e911610071578063db9132e914610592578063e3db4a2e146105c5578063e45aff7d146105e3578063eceb1d58146105ff576101cf565b8063bce92820146104ef578063c4a14bb114610526578063c95c2ece14610542578063d6dba9be14610560576101cf565b8063a289a6c4116100de578063a289a6c41461045e578063b26a7f171461047c578063b4884d741461049a578063b7f8fe4c146104b8576101cf565b8063886d1840146103f25780638da5cb5b1461042257806398c395ac14610440576101cf565b80633bd2da061161017157806342974c701161014b57806342974c701461036857806347e62f2b1461039a578063564747b2146103b8578063776a3b97146103d4576101cf565b80633bd2da06146102f95780633d46424f1461032c5780634093a5ba1461034a576101cf565b8063193eab91116101ad578063193eab911461023c5780631b09e6361461025a5780633508a48d1461028d5780633b98a16f146102c3576101cf565b806302a70ccd146101d4578063097785081461020457806310d6cb3114610220575b600080fd5b6101ee60048036038101906101e991906127f0565b610632565b6040516101fb91906131cc565b60405180910390f35b61021e60048036038101906102199190612942565b610723565b005b61023a60048036038101906102359190612842565b61095a565b005b610244610c69565b60405161025191906131b1565b60405180910390f35b610274600480360381019061026f91906127f0565b610da7565b604051610284949392919061337f565b60405180910390f35b6102a760048036038101906102a291906127f0565b610e11565b6040516102ba9796959493929190613292565b60405180910390f35b6102dd60048036038101906102d8919061297e565b610eb4565b6040516102f09796959493929190613292565b60405180910390f35b610313600480360381019061030e919061297e565b610f67565b604051610323949392919061337f565b60405180910390f35b610334610fe1565b6040516103419190613196565b60405180910390f35b6103526110b3565b60405161035f9190613240565b60405180910390f35b610382600480360381019061037d919061297e565b6110c0565b6040516103919392919061325b565b60405180910390f35b6103a2611127565b6040516103af9190613240565b60405180910390f35b6103d260048036038101906103cd9190612819565b611134565b005b6103dc61131f565b6040516103e991906131e7565b60405180910390f35b61040c600480360381019061040791906127f0565b61140e565b60405161041991906131e7565b60405180910390f35b61042a6114ff565b604051610437919061315b565b60405180910390f35b610448611523565b6040516104559190613240565b60405180910390f35b610466611530565b6040516104739190613202565b60405180910390f35b610484611b40565b60405161049191906131cc565b60405180910390f35b6104a2611c2f565b6040516104af9190613240565b60405180910390f35b6104d260048036038101906104cd91906127f0565b611c3c565b6040516104e6989796959493929190613301565b60405180910390f35b6105096004803603810190610504919061297e565b611cf2565b60405161051d989796959493929190613301565b60405180910390f35b610540600480360381019061053b9190612942565b611db8565b005b61054a611fef565b6040516105579190613240565b60405180910390f35b61057a600480360381019061057591906127f0565b611ffc565b6040516105899392919061325b565b60405180910390f35b6105ac60048036038101906105a791906127f0565b612053565b6040516105bc949392919061337f565b60405180910390f35b6105cd6120bd565b6040516105da9190613224565b60405180910390f35b6105fd60048036038101906105f891906128b9565b612217565b005b6106196004803603810190610614919061297e565b612570565b604051610629949392919061337f565b60405180910390f35b61063a6125ea565b600160008373ffffffffffffffffffffffffffffffffffffffff1673ffffffffffffffffffffffffffffffffffffffff168152602001908152602001600020604051806080016040529081600082015481526020016001820160009054906101000a900473ffffffffffffffffffffffffffffffffffffffff1673ffffffffffffffffffffffffffffffffffffffff1673ffffffffffffffffffffffffffffffffffffffff1681526020016001820160149054906101000a900460ff161515151581526020016001820160159054906101000a900460ff1660ff1660ff16815250509050919050565b60006040518060800160405280600160048054905061074291906134f2565b81526020013373ffffffffffffffffffffffffffffffffffffffff16815260200184151581526020018360ff1681525090506000600360003373ffffffffffffffffffffffffffffffffffffffff1673ffffffffffffffffffffffffffffffffffffffff1681526020019081526020016000206000015414156108805760048190806001815401808255809150506001900390600052602060002090600202016000909190919091506000820151816000015560208201518160010160006101000a81548173ffffffffffffffffffffffffffffffffffffffff021916908373ffffffffffffffffffffffffffffffffffffffff16021790555060408201518160010160146101000a81548160ff02191690831515021790555060608201518160010160156101000a81548160ff021916908360ff16021790555050505b80600360003373ffffffffffffffffffffffffffffffffffffffff1673ffffffffffffffffffffffffffffffffffffffff1681526020019081526020016000206000820151816000015560208201518160010160006101000a81548173ffffffffffffffffffffffffffffffffffffffff021916908373ffffffffffffffffffffffffffffffffffffffff16021790555060408201518160010160146101000a81548160ff02191690831515021790555060608201518160010160156101000a81548160ff021916908360ff160217905550905050505050565b60006040518060e00160405280600160068054905061097991906134f2565b81526020013373ffffffffffffffffffffffffffffffffffffffff168152602001871515815260200186151581526020018515158152602001841515815260200183151581525090506000600560003373ffffffffffffffffffffffffffffffffffffffff1673ffffffffffffffffffffffffffffffffffffffff168152602001908152602001600020600001541415610b2d5760068190806001815401808255809150506001900390600052602060002090600202016000909190919091506000820151816000015560208201518160010160006101000a81548173ffffffffffffffffffffffffffffffffffffffff021916908373ffffffffffffffffffffffffffffffffffffffff16021790555060408201518160010160146101000a81548160ff02191690831515021790555060608201518160010160156101000a81548160ff02191690831515021790555060808201518160010160166101000a81548160ff02191690831515021790555060a08201518160010160176101000a81548160ff02191690831515021790555060c08201518160010160186101000a81548160ff02191690831515021790555050505b80600560003373ffffffffffffffffffffffffffffffffffffffff1673ffffffffffffffffffffffffffffffffffffffff1681526020019081526020016000206000820151816000015560208201518160010160006101000a81548173ffffffffffffffffffffffffffffffffffffffff021916908373ffffffffffffffffffffffffffffffffffffffff16021790555060408201518160010160146101000a81548160ff02191690831515021790555060608201518160010160156101000a81548160ff02191690831515021790555060808201518160010160166101000a81548160ff02191690831515021790555060a08201518160010160176101000a81548160ff02191690831515021790555060c08201518160010160186101000a81548160ff021916908315150217905550905050505050505050565b610c7161262d565b600560003373ffffffffffffffffffffffffffffffffffffffff1673ffffffffffffffffffffffffffffffffffffffff1681526020019081526020016000206040518060e0016040529081600082015481526020016001820160009054906101000a900473ffffffffffffffffffffffffffffffffffffffff1673ffffffffffffffffffffffffffffffffffffffff1673ffffffffffffffffffffffffffffffffffffffff1681526020016001820160149054906101000a900460ff161515151581526020016001820160159054906101000a900460ff161515151581526020016001820160169054906101000a900460ff161515151581526020016001820160179054906101000a900460ff161515151581526020016001820160189054906101000a900460ff161515151581525050905090565b60016020528060005260406000206000915090508060000154908060010160009054906101000a900473ffffffffffffffffffffffffffffffffffffffff16908060010160149054906101000a900460ff16908060010160159054906101000a900460ff16905084565b60056020528060005260406000206000915090508060000154908060010160009054906101000a900473ffffffffffffffffffffffffffffffffffffffff16908060010160149054906101000a900460ff16908060010160159054906101000a900460ff16908060010160169054906101000a900460ff16908060010160179054906101000a900460ff16908060010160189054906101000a900460ff16905087565b60068181548110610ec457600080fd5b90600052602060002090600202016000915090508060000154908060010160009054906101000a900473ffffffffffffffffffffffffffffffffffffffff16908060010160149054906101000a900460ff16908060010160159054906101000a900460ff16908060010160169054906101000a900460ff16908060010160179054906101000a900460ff16908060010160189054906101000a900460ff16905087565b60028181548110610f7757600080fd5b90600052602060002090600202016000915090508060000154908060010160009054906101000a900473ffffffffffffffffffffffffffffffffffffffff16908060010160149054906101000a900460ff16908060010160159054906101000a900460ff16905084565b610fe961268a565b600960003373ffffffffffffffffffffffffffffffffffffffff1673ffffffffffffffffffffffffffffffffffffffff168152602001908152602001600020604051806060016040529081600082015481526020016001820160009054906101000a900473ffffffffffffffffffffffffffffffffffffffff1673ffffffffffffffffffffffffffffffffffffffff1673ffffffffffffffffffffffffffffffffffffffff1681526020016001820160149054906101000a900460ff161515151581525050905090565b6000600280549050905090565b600a81815481106110d057600080fd5b90600052602060002090600202016000915090508060000154908060010160009054906101000a900473ffffffffffffffffffffffffffffffffffffffff16908060010160149054906101000a900460ff16905083565b6000600880549050905090565b600060405180606001604052806001600a8054905061115391906134f2565b81526020013373ffffffffffffffffffffffffffffffffffffffff16815260200183151581525090506000600960003373ffffffffffffffffffffffffffffffffffffffff1673ffffffffffffffffffffffffffffffffffffffff16815260200190815260200160002060000154141561126757600a8190806001815401808255809150506001900390600052602060002090600202016000909190919091506000820151816000015560208201518160010160006101000a81548173ffffffffffffffffffffffffffffffffffffffff021916908373ffffffffffffffffffffffffffffffffffffffff16021790555060408201518160010160146101000a81548160ff02191690831515021790555050505b80600960003373ffffffffffffffffffffffffffffffffffffffff1673ffffffffffffffffffffffffffffffffffffffff1681526020019081526020016000206000820151816000015560208201518160010160006101000a81548173ffffffffffffffffffffffffffffffffffffffff021916908373ffffffffffffffffffffffffffffffffffffffff16021790555060408201518160010160146101000a81548160ff0219169083151502179055509050505050565b6113276126c3565b600360003373ffffffffffffffffffffffffffffffffffffffff1673ffffffffffffffffffffffffffffffffffffffff168152602001908152602001600020604051806080016040529081600082015481526020016001820160009054906101000a900473ffffffffffffffffffffffffffffffffffffffff1673ffffffffffffffffffffffffffffffffffffffff1673ffffffffffffffffffffffffffffffffffffffff1681526020016001820160149054906101000a900460ff161515151581526020016001820160159054906101000a900460ff1660ff1660ff1681525050905090565b6114166126c3565b600360008373ffffffffffffffffffffffffffffffffffffffff1673ffffffffffffffffffffffffffffffffffffffff168152602001908152602001600020604051806080016040529081600082015481526020016001820160009054906101000a900473ffffffffffffffffffffffffffffffffffffffff1673ffffffffffffffffffffffffffffffffffffffff1673ffffffffffffffffffffffffffffffffffffffff1681526020016001820160149054906101000a900460ff161515151581526020016001820160159054906101000a900460ff1660ff1660ff16815250509050919050565b60008054906101000a900473ffffffffffffffffffffffffffffffffffffffff1681565b6000600680549050905090565b611538612706565b3373ffffffffffffffffffffffffffffffffffffffff1660008054906101000a900473ffffffffffffffffffffffffffffffffffffffff1673ffffffffffffffffffffffffffffffffffffffff16146115c6576040517f08c379a00000000000000000000000000000000000000000000000000000000081526004016115bd90613176565b60405180910390fd5b60006040518060a001604052806002805480602002602001604051908101604052809291908181526020016000905b828210156116bf5783829060005260206000209060020201604051806080016040529081600082015481526020016001820160009054906101000a900473ffffffffffffffffffffffffffffffffffffffff1673ffffffffffffffffffffffffffffffffffffffff1673ffffffffffffffffffffffffffffffffffffffff1681526020016001820160149054906101000a900460ff161515151581526020016001820160159054906101000a900460ff1660ff1660ff1681525050815260200190600101906115f5565b5050505081526020016004805480602002602001604051908101604052809291908181526020016000905b828210156117b45783829060005260206000209060020201604051806080016040529081600082015481526020016001820160009054906101000a900473ffffffffffffffffffffffffffffffffffffffff1673ffffffffffffffffffffffffffffffffffffffff1673ffffffffffffffffffffffffffffffffffffffff1681526020016001820160149054906101000a900460ff161515151581526020016001820160159054906101000a900460ff1660ff1660ff1681525050815260200190600101906116ea565b5050505081526020016006805480602002602001604051908101604052809291908181526020016000905b828210156118f857838290600052602060002090600202016040518060e0016040529081600082015481526020016001820160009054906101000a900473ffffffffffffffffffffffffffffffffffffffff1673ffffffffffffffffffffffffffffffffffffffff1673ffffffffffffffffffffffffffffffffffffffff1681526020016001820160149054906101000a900460ff161515151581526020016001820160159054906101000a900460ff161515151581526020016001820160169054906101000a900460ff161515151581526020016001820160179054906101000a900460ff161515151581526020016001820160189054906101000a900460ff161515151581525050815260200190600101906117df565b5050505081526020016008805480602002602001604051908101604052809291908181526020016000905b82821015611a58578382906000526020600020906002020160405180610100016040529081600082015481526020016001820160009054906101000a900473ffffffffffffffffffffffffffffffffffffffff1673ffffffffffffffffffffffffffffffffffffffff1673ffffffffffffffffffffffffffffffffffffffff1681526020016001820160149054906101000a900460ff161515151581526020016001820160159054906101000a900460ff161515151581526020016001820160169054906101000a900460ff161515151581526020016001820160179054906101000a900460ff161515151581526020016001820160189054906101000a900460ff161515151581526020016001820160199054906101000a900460ff16151515158152505081526020019060010190611923565b505050508152602001600a805480602002602001604051908101604052809291908181526020016000905b82821015611b305783829060005260206000209060020201604051806060016040529081600082015481526020016001820160009054906101000a900473ffffffffffffffffffffffffffffffffffffffff1673ffffffffffffffffffffffffffffffffffffffff1673ffffffffffffffffffffffffffffffffffffffff1681526020016001820160149054906101000a900460ff16151515158152505081526020019060010190611a83565b5050505081525090508091505090565b611b486125ea565b600160003373ffffffffffffffffffffffffffffffffffffffff1673ffffffffffffffffffffffffffffffffffffffff168152602001908152602001600020604051806080016040529081600082015481526020016001820160009054906101000a900473ffffffffffffffffffffffffffffffffffffffff1673ffffffffffffffffffffffffffffffffffffffff1673ffffffffffffffffffffffffffffffffffffffff1681526020016001820160149054906101000a900460ff161515151581526020016001820160159054906101000a900460ff1660ff1660ff1681525050905090565b6000600a80549050905090565b60076020528060005260406000206000915090508060000154908060010160009054906101000a900473ffffffffffffffffffffffffffffffffffffffff16908060010160149054906101000a900460ff16908060010160159054906101000a900460ff16908060010160169054906101000a900460ff16908060010160179054906101000a900460ff16908060010160189054906101000a900460ff16908060010160199054906101000a900460ff16905088565b60088181548110611d0257600080fd5b90600052602060002090600202016000915090508060000154908060010160009054906101000a900473ffffffffffffffffffffffffffffffffffffffff16908060010160149054906101000a900460ff16908060010160159054906101000a900460ff16908060010160169054906101000a900460ff16908060010160179054906101000a900460ff16908060010160189054906101000a900460ff16908060010160199054906101000a900460ff16905088565b600060405180608001604052806001600280549050611dd791906134f2565b81526020013373ffffffffffffffffffffffffffffffffffffffff16815260200184151581526020018360ff1681525090506000600160003373ffffffffffffffffffffffffffffffffffffffff1673ffffffffffffffffffffffffffffffffffffffff168152602001908152602001600020600001541415611f155760028190806001815401808255809150506001900390600052602060002090600202016000909190919091506000820151816000015560208201518160010160006101000a81548173ffffffffffffffffffffffffffffffffffffffff021916908373ffffffffffffffffffffffffffffffffffffffff16021790555060408201518160010160146101000a81548160ff02191690831515021790555060608201518160010160156101000a81548160ff021916908360ff16021790555050505b80600160003373ffffffffffffffffffffffffffffffffffffffff1673ffffffffffffffffffffffffffffffffffffffff1681526020019081526020016000206000820151816000015560208201518160010160006101000a81548173ffffffffffffffffffffffffffffffffffffffff021916908373ffffffffffffffffffffffffffffffffffffffff16021790555060408201518160010160146101000a81548160ff02191690831515021790555060608201518160010160156101000a81548160ff021916908360ff160217905550905050505050565b6000600480549050905090565b60096020528060005260406000206000915090508060000154908060010160009054906101000a900473ffffffffffffffffffffffffffffffffffffffff16908060010160149054906101000a900460ff16905083565b60036020528060005260406000206000915090508060000154908060010160009054906101000a900473ffffffffffffffffffffffffffffffffffffffff16908060010160149054906101000a900460ff16908060010160159054906101000a900460ff16905084565b6120c5612735565b600760003373ffffffffffffffffffffffffffffffffffffffff1673ffffffffffffffffffffffffffffffffffffffff16815260200190815260200160002060405180610100016040529081600082015481526020016001820160009054906101000a900473ffffffffffffffffffffffffffffffffffffffff1673ffffffffffffffffffffffffffffffffffffffff1673ffffffffffffffffffffffffffffffffffffffff1681526020016001820160149054906101000a900460ff161515151581526020016001820160159054906101000a900460ff161515151581526020016001820160169054906101000a900460ff161515151581526020016001820160179054906101000a900460ff161515151581526020016001820160189054906101000a900460ff161515151581526020016001820160199054906101000a900460ff161515151581525050905090565b6000604051806101000160405280600160088054905061223791906134f2565b81526020013373ffffffffffffffffffffffffffffffffffffffff1681526020018815158152602001871515815260200186151581526020018515158152602001841515815260200183151581525090506000600760003373ffffffffffffffffffffffffffffffffffffffff1673ffffffffffffffffffffffffffffffffffffffff1681526020019081526020016000206000015414156124135760088190806001815401808255809150506001900390600052602060002090600202016000909190919091506000820151816000015560208201518160010160006101000a81548173ffffffffffffffffffffffffffffffffffffffff021916908373ffffffffffffffffffffffffffffffffffffffff16021790555060408201518160010160146101000a81548160ff02191690831515021790555060608201518160010160156101000a81548160ff02191690831515021790555060808201518160010160166101000a81548160ff02191690831515021790555060a08201518160010160176101000a81548160ff02191690831515021790555060c08201518160010160186101000a81548160ff02191690831515021790555060e08201518160010160196101000a81548160ff02191690831515021790555050505b80600760003373ffffffffffffffffffffffffffffffffffffffff1673ffffffffffffffffffffffffffffffffffffffff1681526020019081526020016000206000820151816000015560208201518160010160006101000a81548173ffffffffffffffffffffffffffffffffffffffff021916908373ffffffffffffffffffffffffffffffffffffffff16021790555060408201518160010160146101000a81548160ff02191690831515021790555060608201518160010160156101000a81548160ff02191690831515021790555060808201518160010160166101000a81548160ff02191690831515021790555060a08201518160010160176101000a81548160ff02191690831515021790555060c08201518160010160186101000a81548160ff02191690831515021790555060e08201518160010160196101000a81548160ff02191690831515021790555090505050505050505050565b6004818154811061258057600080fd5b90600052602060002090600202016000915090508060000154908060010160009054906101000a900473ffffffffffffffffffffffffffffffffffffffff16908060010160149054906101000a900460ff16908060010160159054906101000a900460ff16905084565b604051806080016040528060008152602001600073ffffffffffffffffffffffffffffffffffffffff168152602001600015158152602001600060ff1681525090565b6040518060e0016040528060008152602001600073ffffffffffffffffffffffffffffffffffffffff1681526020016000151581526020016000151581526020016000151581526020016000151581526020016000151581525090565b604051806060016040528060008152602001600073ffffffffffffffffffffffffffffffffffffffff1681526020016000151581525090565b604051806080016040528060008152602001600073ffffffffffffffffffffffffffffffffffffffff168152602001600015158152602001600060ff1681525090565b6040518060a0016040528060608152602001606081526020016060815260200160608152602001606081525090565b60405180610100016040528060008152602001600073ffffffffffffffffffffffffffffffffffffffff1681526020016000151581526020016000151581526020016000151581526020016000151581526020016000151581526020016000151581525090565b6000813590506127ab816135f5565b92915050565b6000813590506127c08161360c565b92915050565b6000813590506127d581613623565b92915050565b6000813590506127ea8161363a565b92915050565b60006020828403121561280257600080fd5b60006128108482850161279c565b91505092915050565b60006020828403121561282b57600080fd5b6000612839848285016127b1565b91505092915050565b600080600080600060a0868803121561285a57600080fd5b6000612868888289016127b1565b9550506020612879888289016127b1565b945050604061288a888289016127b1565b935050606061289b888289016127b1565b92505060806128ac888289016127b1565b9150509295509295909350565b60008060008060008060c087890312156128d257600080fd5b60006128e089828a016127b1565b96505060206128f189828a016127b1565b955050604061290289828a016127b1565b945050606061291389828a016127b1565b935050608061292489828a016127b1565b92505060a061293589828a016127b1565b9150509295509295509295565b6000806040838503121561295557600080fd5b6000612963858286016127b1565b9250506020612974858286016127db565b9150509250929050565b60006020828403121561299057600080fd5b600061299e848285016127c6565b91505092915050565b60006129b38383612c55565b60608301905092915050565b60006129cb8383612cd9565b60e08301905092915050565b60006129e38383612df5565b60808301905092915050565b60006129fb8383612e9f565b60808301905092915050565b6000612a138383612fdb565b6101008301905092915050565b612a2981613548565b82525050565b612a3881613548565b82525050565b6000612a4982613414565b612a53818561348c565b9350612a5e836133c4565b8060005b83811015612a8f578151612a7688826129a7565b9750612a818361344b565b925050600181019050612a62565b5085935050505092915050565b6000612aa78261341f565b612ab1818561349d565b9350612abc836133d4565b8060005b83811015612aed578151612ad488826129bf565b9750612adf83613458565b925050600181019050612ac0565b5085935050505092915050565b6000612b058261342a565b612b0f81856134ae565b9350612b1a836133e4565b8060005b83811015612b4b578151612b3288826129d7565b9750612b3d83613465565b925050600181019050612b1e565b5085935050505092915050565b6000612b6382613435565b612b6d81856134bf565b9350612b78836133f4565b8060005b83811015612ba9578151612b9088826129ef565b9750612b9b83613472565b925050600181019050612b7c565b5085935050505092915050565b6000612bc182613440565b612bcb81856134d0565b9350612bd683613404565b8060005b83811015612c07578151612bee8882612a07565b9750612bf98361347f565b925050600181019050612bda565b5085935050505092915050565b612c1d8161355a565b82525050565b612c2c8161355a565b82525050565b6000612c3f6017836134e1565b9150612c4a826135cc565b602082019050919050565b606082016000820151612c6b600085018261311f565b506020820151612c7e6020850182612a20565b506040820151612c916040850182612c14565b50505050565b606082016000820151612cad600085018261311f565b506020820151612cc06020850182612a20565b506040820151612cd36040850182612c14565b50505050565b60e082016000820151612cef600085018261311f565b506020820151612d026020850182612a20565b506040820151612d156040850182612c14565b506060820151612d286060850182612c14565b506080820151612d3b6080850182612c14565b5060a0820151612d4e60a0850182612c14565b5060c0820151612d6160c0850182612c14565b50505050565b60e082016000820151612d7d600085018261311f565b506020820151612d906020850182612a20565b506040820151612da36040850182612c14565b506060820151612db66060850182612c14565b506080820151612dc96080850182612c14565b5060a0820151612ddc60a0850182612c14565b5060c0820151612def60c0850182612c14565b50505050565b608082016000820151612e0b600085018261311f565b506020820151612e1e6020850182612a20565b506040820151612e316040850182612c14565b506060820151612e44606085018261313d565b50505050565b608082016000820151612e60600085018261311f565b506020820151612e736020850182612a20565b506040820151612e866040850182612c14565b506060820151612e99606085018261313d565b50505050565b608082016000820151612eb5600085018261311f565b506020820151612ec86020850182612a20565b506040820151612edb6040850182612c14565b506060820151612eee606085018261313d565b50505050565b608082016000820151612f0a600085018261311f565b506020820151612f1d6020850182612a20565b506040820151612f306040850182612c14565b506060820151612f43606085018261313d565b50505050565b600060a0830160008301518482036000860152612f668282612afa565b91505060208301518482036020860152612f808282612b58565b91505060408301518482036040860152612f9a8282612a9c565b91505060608301518482036060860152612fb48282612bb6565b91505060808301518482036080860152612fce8282612a3e565b9150508091505092915050565b61010082016000820151612ff2600085018261311f565b5060208201516130056020850182612a20565b5060408201516130186040850182612c14565b50606082015161302b6060850182612c14565b50608082015161303e6080850182612c14565b5060a082015161305160a0850182612c14565b5060c082015161306460c0850182612c14565b5060e082015161307760e0850182612c14565b50505050565b61010082016000820151613094600085018261311f565b5060208201516130a76020850182612a20565b5060408201516130ba6040850182612c14565b5060608201516130cd6060850182612c14565b5060808201516130e06080850182612c14565b5060a08201516130f360a0850182612c14565b5060c082015161310660c0850182612c14565b5060e082015161311960e0850182612c14565b50505050565b61312881613586565b82525050565b61313781613586565b82525050565b61314681613590565b82525050565b61315581613590565b82525050565b60006020820190506131706000830184612a2f565b92915050565b6000602082019050818103600083015261318f81612c32565b9050919050565b60006060820190506131ab6000830184612c97565b92915050565b600060e0820190506131c66000830184612d67565b92915050565b60006080820190506131e16000830184612e4a565b92915050565b60006080820190506131fc6000830184612ef4565b92915050565b6000602082019050818103600083015261321c8184612f49565b905092915050565b60006101008201905061323a600083018461307d565b92915050565b6000602082019050613255600083018461312e565b92915050565b6000606082019050613270600083018661312e565b61327d6020830185612a2f565b61328a6040830184612c23565b949350505050565b600060e0820190506132a7600083018a61312e565b6132b46020830189612a2f565b6132c16040830188612c23565b6132ce6060830187612c23565b6132db6080830186612c23565b6132e860a0830185612c23565b6132f560c0830184612c23565b98975050505050505050565b600061010082019050613317600083018b61312e565b613324602083018a612a2f565b6133316040830189612c23565b61333e6060830188612c23565b61334b6080830187612c23565b61335860a0830186612c23565b61336560c0830185612c23565b61337260e0830184612c23565b9998505050505050505050565b6000608082019050613394600083018761312e565b6133a16020830186612a2f565b6133ae6040830185612c23565b6133bb606083018461314c565b95945050505050565b6000819050602082019050919050565b6000819050602082019050919050565b6000819050602082019050919050565b6000819050602082019050919050565b6000819050602082019050919050565b600081519050919050565b600081519050919050565b600081519050919050565b600081519050919050565b600081519050919050565b6000602082019050919050565b6000602082019050919050565b6000602082019050919050565b6000602082019050919050565b6000602082019050919050565b600082825260208201905092915050565b600082825260208201905092915050565b600082825260208201905092915050565b600082825260208201905092915050565b600082825260208201905092915050565b600082825260208201905092915050565b60006134fd82613586565b915061350883613586565b9250827fffffffffffffffffffffffffffffffffffffffffffffffffffffffffffffffff0382111561353d5761353c61359d565b5b828201905092915050565b600061355382613566565b9050919050565b60008115159050919050565b600073ffffffffffffffffffffffffffffffffffffffff82169050919050565b6000819050919050565b600060ff82169050919050565b7f4e487b7100000000000000000000000000000000000000000000000000000000600052601160045260246000fd5b7f596f7520617265206e6f7420617574686f72697a65642e000000000000000000600082015250565b6135fe81613548565b811461360957600080fd5b50565b6136158161355a565b811461362057600080fd5b50565b61362c81613586565b811461363757600080fd5b50565b61364381613590565b811461364e57600080fd5b5056fea2646970667358221220707f2bf62298ecaa27a43931ad377f180c65c70a832b1e71e3a914d6dfcb58e964736f6c63430008020033",
  "linkReferences": {},
  "deployedLinkReferences": {}
}